:020000040800F2
:10000000008001207D1F0008810700088707000885
:100010008D070008930700089907000800000000FA
:100020000000000000000000000000009F07000822
:10003000AD07000800000000BB070008C907000862
:10004000CD1F0008CD1F0008CD1F0008CD1F0008E0
:10005000CD1F0008CD1F0008CD1F0008CD1F0008D0
:10006000CD1F0008CD1F0008CD1F0008CD1F0008C0
:10007000CD1F0008CD1F0008CD1F0008CD1F0008B0
:10008000CD1F0008CD1F0008CD1F00080000000094
:10009000000000000000000000000000CD1F00086C
:1000A000CD1F0008CD1F0008CD1F0008CD1F000880
:1000B000D5070008CD1F0008CD1F0008CD1F000880
:1000C000CD1F0008CD1F0008CD1F0008CD1F000860
:1000D000CD1F0008CD1F0008CD1F00080000000044
:1000E000CD1F0008CD1F0008CD1F00080000000034
:1000F000000000000000000000000000CD1F00080C
:1001000000000000CD1F0008CD1F0008CD1F000813
:1001100000000000000000000000000000000000DF
:10012000CD1F0008CD1F0008CD1F0008CD1F0008FF
:10013000CD1F0008000000000000000000000000CB
:10014000000000000000000000000000CD1F0008BB
:10015000CD1F0008CD1F0008CD1F0008CD1F0008CF
:10016000CD1F0008CD1F00080000000000000000A7
:10017000000000000000000000000000000000007F
:1001800000000000CD1F000800000000000000007B
:04019000CD1F000877
:1001940010B5054C237833B9044B13B10448AFF3BD
:1001A40000800123237010BD0C000020000000001B
:1001B4002820000808B5034B1BB103490348AFF3DB
:1001C400008008BD00000000100000202820000866
:1001D40053B94AB9002908BF00281CBF4FF0FF31AA
:1001E4004FF0FF3000F07AB9ADF1080C6DE904CEA0
:1001F40000F006F8DDF804E0DDE9022304B07047FE
:100204002DE9F0478C460D460446089E002B51D13B
:100214008A4217466DD9B2FA82FEBEF1000F0BD0A6
:10022400CEF1200C01FA0EF520FA0CFC02FA0EF7BE
:100234004CEA050C00FA0EF44FEA174A250CBCFBF5
:10024400FAF81FFA87F90AFB18CC45EA0C4508FBB3
:1002540009F3AB420AD9ED1908F1FF3280F023818A
:10026400AB4240F22081A8F102083D44ED1AA4B249
:10027400B5FBFAF00AFB105544EA054400FB09F902
:10028400A14509D9E41900F1FF3380F00A81A145A1
:1002940040F2078102383C44A4EB090440EA0840D8
:1002A4000021002E61D024FA0EF400233460736020
:1002B400BDE8F0878B4207D9002E54D0002186E890
:1002C40021000846BDE8F087B3FA83F1002940F025
:1002D4008E80AB4202D3824200F2FA80841A65EB2C
:1002E40003050120AC46002E3FD086E81010BDE87F
:1002F400F08712B90127B7FBF2F7B7FA87FEBEF110
:10030400000F34D1EB1B3A0C1FFA87FC0121B3FB1D
:10031400F2F8250C02FB183345EA03450CFB08F3FD
:10032400AB4207D9ED1908F1FF3002D2AB4200F21B
:10033400D1808046ED1AA3B2B5FBF2F002FB105552
:1003440043EA05440CFB00FCA44507D9E41900F179
:10035400FF3302D2A44500F2B8801846A4EB0C0483
:1003640040EA08409DE731463046BDE8F087CEF1CB
:10037400200405FA0EF307FA0EF720FA04F83A0CF3
:1003840025FA04F448EA0308B4FBF2F14FEA1845ED
:1003940002FB11441FFA87FC45EA044501FB0CF3F8
:1003A400AB4200FA0EF409D9ED1901F1FF3080F0E7
:1003B4008A80AB4240F2878002393D44EB1A1FFA2F
:1003C40088F5B3FBF2F002FB103345EA034500FB6A
:1003D4000CF3AB4207D9ED1900F1FF386FD2AB42F1
:1003E4006DD902383D44EB1A40EA01418FE7C1F16F
:1003F400200722FA07F88B4005FA01F448EA0303C0
:1004040020FA07FE4FEA134CFD404EEA040EB5FBFA
:10041400FCF94FEA1E440CFB19551FFA83F844EA11
:10042400054509FB08F4AC4202FA01F200FA01FAAC
:1004340008D9ED1809F1FF3043D2AC4241D9A9F1F2
:1004440002091D442D1B1FFA8EFEB5FBFCF00CFBAC
:1004540010554EEA054400FB08F8A04507D9E418F6
:1004640000F1FF3529D2A04527D902381C4440EABF
:100474000940A4EB0804A0FB02894C45C6464D463E
:1004840015D312D056B1BAEB0E0364EB050404FA8B
:1004940007F7CB401F43CC40376074600021BDE8B0
:1004A400F0871846F8E69046E0E6C245EAD2B8EB93
:1004B400020E69EB03050138E4E72846D7E7404616
:1004C40091E78146BEE7014678E702383C4445E7B8
:1004D400084608E7A8F102083D442BE7704700BF2F
:1004E40080B500AF00F096F900F00AF800F0C2F809
:1004F40000F072F8014801F04BF9FEE728000020F3
:1005040080B594B000AF07F12003302200211846D3
:1005140001F080FD07F10C0300221A605A609A6012
:10052400DA601A610023BB60294A294B1B6C43F033
:1005340080531364264B1B6C03F08053BB60BB6871
:1005440000237B60234A234B1B6823F4404343F47A
:10055400004313601F4B1B6803F440437B607B68BC
:1005640002233B620123FB6210233B630223BB6330
:100574000023FB6310233B644FF4A8737B640423C0
:10058400BB640723FB6407F12003184600F07AFCE0
:100594000346002B01D000F09FF80F23FB600223D9
:1005A4003B6100237B614FF48053BB610023FB61FB
:1005B40007F10C030221184600F0DCFE0346002B71
:1005C40001D000F089F800BF5037BD4680BD00BFA0
:1005D400003802400070004080B586B000AF07F1DB
:1005E400080300221A605A609A60DA603B460022CF
:1005F4001A605A601E4B4FF080421A601C4B4AF23C
:100604000F425A601A4B00229A60194B40F2CF7283
:10061400DA60174B00221A61154B00229A611448C4
:1006240001F066F80346002B01D000F055F84FF4B2
:100634008053BB6007F1080319460D4801F012FA14
:100644000346002B01D000F047F800233B60002351
:100654007B603B461946064801F00CFC0346002B20
:1006640001D000F039F800BF1837BD4680BD00BF87
:100674002800002080B586B000AF3B1D00221A6020
:100684005A609A60DA601A6100233B60104A104B8A
:100694001B6B43F0010313630D4B1B6B03F001034E
:1006A4003B603B68002233210A4800F0B7FB332348
:1006B4007B600123BB600023FB6003233B613B1D84
:1006C4001946044800F028FA00BF1837BD4680BD1B
:1006D400003802400000024080B400AF72B6FEE76A
:1006E40080B582B000AF00237B60104A0F4B5B6C77
:1006F40043F4804353640D4B5B6C03F480437B6091
:100704007B6800233B60094A084B1B6C43F0805311
:100714001364064B1B6C03F080533B603B6807205B
:1007240000F0B8F900BF0837BD4680BD003802406C
:1007340080B584B000AF78607B681B68B3F1804FEC
:1007440015D10023FB600C4A0B4B1B6C43F00103D7
:100754001364094B1B6C03F00103FB60FB6800226C
:1007640000211C2000F0A1F91C2000F0BAF900BF00
:100774001037BD4680BD00BF0038024080B400AFD2
:10078400FEE780B400AFFEE780B400AFFEE780B4BC
:1007940000AFFEE780B400AFFEE780B400AF00BF57
:1007A400BD465DF8047B704780B400AF00BFBD4612
:1007B4005DF8047B704780B400AF00BFBD465DF8B0
:1007C400047B704780B500AF00F076F800BF80BDB1
:1007D40080B500AF3321044800F039FB034801F031
:1007E40039F800BF80BD00BF00000240280000208F
:1007F40080B400AF064A064BD3F8883043F4700344
:10080400C2F8883000BFBD465DF8047B704700BF66
:1008140000ED00E080B500AF0E4A0E4B1B6843F4B8
:10082400007313600B4A0B4B1B6843F48063136023
:10083400084A084B1B6843F480731360032000F0DC
:1008440029F9002000F008F8FFF74AFF00231846B2
:1008540080BD00BF003C024080B582B000AF78602C
:10086400124B1A68124B1B7819464FF47A73B3FB78
:10087400F1F3B2FBF3F3184600F041F90346002B01
:1008840001D001230EE07B680F2B0AD8002279687F
:100894004FF0FF3000F009F9064A7B68136000232B
:1008A40000E0012318460837BD4680BD0000002043
:1008B400080000200400002080B400AF064B1B7821
:1008C4001A46064B1B681344044A136000BFBD4616
:1008D4005DF8047B704700BF080000207000002012
:1008E40080B400AF034B1B681846BD465DF8047B1B
:1008F400704700BF7000002080B485B000AF7860FE
:100904007B6803F00703FB600C4BDB68BB60BA68D1
:100914004FF6FF031340BB60FB681A02BB68134326
:1009240043F0BF6343F40033BB60044ABB68D36045
:1009340000BF1437BD465DF8047B704700ED00E04E
:1009440080B400AF044BDB681B0A03F007031846AE
:10095400BD465DF8047B704700ED00E080B483B0D1
:1009640000AF0346FB7197F90730002B0BDB0949F5
:1009740097F907305B09FA7902F01F02012000FAA7
:1009840002F241F8232000BF0C37BD465DF8047B1A
:10099400704700BF00E100E080B483B000AF0346BD
:1009A4003960FB7197F90730002B0ADB0D4997F981
:1009B40007303A68D2B21201D2B20B4483F8002352
:1009C4000AE00949FB7903F00F03043B3A68D2B209
:1009D4001201D2B20B441A7600BF0C37BD465DF843
:1009E400047B704700E100E000ED00E080B489B0D2
:1009F40000AFF860B9607A60FB6803F00703FB613D
:100A0400FB69C3F10703042B28BF0423BB61FB6903
:100A14000433062B02D9FB69033B00E000237B610E
:100A24000122BB6902FA03F35A1EBB681A407B69B0
:100A34009A4001217B6901FA03F3591E7B680B403C
:100A4400134318462437BD465DF8047B7047000005
:100A540080B582B000AF78607B68013BB3F1807FE2
:100A640001D301230FE00A4A7B68013B53600F2145
:100A74004FF0FF30FFF790FF054B00229A60044BC4
:100A840007221A60002318460837BD4680BD00BF00
:100A940010E000E080B582B000AF78607868FFF7BE
:100AA4002BFF00BF0837BD4680BD80B586B000AFC0
:100AB4000346B9607A60FB7300237B61FFF740FF54
:100AC40078617A68B9687869FFF790FF024697F908
:100AD4000F3011461846FFF75FFF00BF1837BD46B9
:100AE40080BD80B582B000AF0346FB7197F9073033
:100AF4001846FFF733FF00BF0837BD4680BD80B5F9
:100B040082B000AF78607868FFF7A2FF034618460A
:100B14000837BD4680BD000080B489B000AF78605E
:100B2400396000237B6100233B610023BB61002308
:100B3400FB6159E10122FB6902FA03F37B613B6823
:100B44001A687B6913403B613A697B699A4240F0B9
:100B540048813B685B6803F00303012B05D03B68C5
:100B64005B6803F00303022B30D17B689B68BB6195
:100B7400FB695B00032202FA03F3DB43BA69134007
:100B8400BB613B68DA68FB695B0002FA03F3BA698C
:100B94001343BB617B68BA699A607B685B68BB611D
:100BA4000122FB6902FA03F3DB43BA691340BB6118
:100BB4003B685B681B0903F00102FB6902FA03F35B
:100BC400BA691343BB617B68BA695A603B685B6866
:100BD40003F00303032B17D07B68DB68BB61FB695D
:100BE4005B00032202FA03F3DB43BA691340BB61DF
:100BF4003B689A68FB695B0002FA03F3BA69134322
:100C0400BB617B68BA69DA603B685B6803F0030325
:100C1400022B23D1FB69DA087B68083253F82230AF
:100C2400BB61FB6903F007039B000F2202FA03F385
:100C3400DB43BA691340BB613B681A69FB6903F083
:100C440007039B0002FA03F3BA691343BB61FB6910
:100C5400DA087B680832B96943F822107B681B689C
:100C6400BB61FB695B00032202FA03F3DB43BA694D
:100C74001340BB613B685B6803F00302FB695B00E4
:100C840002FA03F3BA691343BB617B68BA691A6059
:100C94003B685B6803F44033002B00F0A280002320
:100CA400FB60564A554B5B6C43F480435364534B8F
:100CB4005B6C03F48043FB60FB68514AFB699B084F
:100CC400023352F82330BB61FB6903F003039B003A
:100CD4000F2202FA03F3DB43BA691340BB617B685A
:100CE400484A934219D07B68474A934213D07B68A1
:100CF400464A93420DD07B68454A934207D07B68AD
:100D0400444A934201D1042308E0072306E0032365
:100D140004E0022302E0012300E00023FA6902F068
:100D2400030292009340BA691343BB613449FB69DF
:100D34009B080233BA6941F82320374B9B68BB6197
:100D44003B69DB43BA691340BB613B685B6803F4EE
:100D54008013002B03D0BA693B691343BB612E4A4D
:100D6400BB6993602C4BDB68BB613B69DB43BA69AD
:100D74001340BB613B685B6803F40013002B03D092
:100D8400BA693B691343BB61234ABB69D360224BF5
:100D94005B68BB613B69DB43BA691340BB613B6879
:100DA4005B6803F40033002B03D0BA693B69134337
:100DB400BB61194ABB695360174B1B68BB613B6934
:100DC400DB43BA691340BB613B685B6803F480335F
:100DD400002B03D0BA693B691343BB610E4ABB695C
:100DE4001360FB690133FB61FB690F2B7FF6A2AE35
:100DF40000BF2437BD465DF8047B704700380240CD
:100E04000038014000000240000402400008024093
:100E1400000C024000100240003C014080B483B04A
:100E240000AF78600B467B8013467B707B78002B89
:100E340003D07A887B689A6103E07B881A047B6814
:100E44009A6100BF0C37BD465DF8047B704780B4DF
:100E540085B000AF78600B467B807B685B69FB6084
:100E64007A88FB6813401A04FB68D9437B880B40DB
:100E74001A437B689A6100BF1437BD465DF8047B52
:100E84007047000080B586B000AF78607B68002BA7
:100E940001D1012364E27B681B6803F00103002B8A
:100EA40075D0A34B9B6803F00C03042B0CD0A04B10
:100EB4009B6803F00C03082B12D19D4B5B6803F471
:100EC4008003B3F5800F0BD1994B1B6803F40033F7
:100ED400002B5BD07B685B68002B57D101233FE27A
:100EE4007B685B68B3F5803F06D1914A904B1B68E1
:100EF40043F4803313601DE07B685B68B3F5A02F77
:100F04000CD18B4A8A4B1B6843F480231360884AB4
:100F1400874B1B6843F4803313600BE0844A844B93
:100F24001B6823F480331360814A814B1B6823F4CC
:100F3400802313607B685B68002B13D0FFF7D0FC21
:100F4400386108E0FFF7CCFC02463B69D31A642BF6
:100F540001D9032304E2764B1B6803F40033002B0E
:100F6400F0D014E0FFF7BCFC386108E0FFF7B8FCF0
:100F740002463B69D31A642B01D90323F0E16C4B7D
:100F84001B6803F40033002BF0D100E000BF7B6842
:100F94001B6803F00203002B63D0654B9B6803F0CE
:100FA4000C03002B0BD0624B9B6803F00C03082B43
:100FB4001CD15F4B5B6803F48003002B16D15C4BA0
:100FC4001B6803F00203002B05D07B68DB68012B50
:100FD40001D00123C4E15649554B1B6823F0F802A4
:100FE4007B681B69DB0013430B603AE07B68DB68BA
:100FF400002B20D04F4B01221A60FFF771FC38619F
:1010040008E0FFF76DFC02463B69D31A022B01D9B5
:101014000323A5E1464B1B6803F00203002BF0D029
:101024004349434B1B6823F0F8027B681B69DB00D0
:1010340013430B6015E03F4B00221A60FFF750FC8E
:10104400386108E0FFF74CFC02463B69D31A022BD7
:1010540001D9032384E1364B1B6803F00203002B00
:10106400F0D17B681B6803F00803002B30D07B6849
:101074005B69002B16D0304B01221A60FFF730FC5D
:10108400386108E0FFF72CFC02463B69D31A022BB7
:1010940001D9032364E1264B5B6F03F00203002BA9
:1010A400F0D015E0244B00221A60FFF719FC3861D8
:1010B40008E0FFF715FC02463B69D31A022B01D95D
:1010C40003234DE11A4B5B6F03F00203002BF0D1B5
:1010D4007B681B6803F00403002B00F0A08000234E
:1010E400FB75134B1B6C03F08053002B0FD10023B3
:1010F400BB600F4A0E4B1B6C43F0805313640C4BC4
:101104001B6C03F08053BB60BB680123FB750B4B66
:101114001B6803F48073002B21D1084A074B1B681A
:1011240043F480731360FFF7DBFB386111E000BF09
:101134000038024000004742800E474200700040E1
:10114400FFF7CEFB02463B69D31A022B01D90323D6
:1011540006E1854B1B6803F48073002BF0D07B6899
:101164009B68012B06D1814A804B1B6F43F001031E
:1011740013671CE07B689B68052B0CD17B4A7B4B77
:101184001B6F43F004031367784A784B1B6F43F0DB
:10119400010313670BE0754A744B1B6F23F00103C3
:1011A4001367724A714B1B6F23F0040313677B6848
:1011B4009B68002B15D0FFF793FB38610AE0FFF71B
:1011C4008FFB02463B69D31A41F28832934201D91C
:1011D4000323C5E0654B1B6F03F00203002BEED025
:1011E40014E0FFF77DFB38610AE0FFF779FB024664
:1011F4003B69D31A41F28832934201D90323AFE009
:101204005A4B1B6F03F00203002BEED1FB7D012B25
:1012140005D1564A554B1B6C23F0805313647B68ED
:101224009B69002B00F09B80504B9B6803F00C03E0
:10123400082B5CD07B689B69022B41D14C4B00226C
:101244001A60FFF74DFB386108E0FFF749FB0246DF
:101254003B69D31A022B01D9032381E0434B1B685A
:1012640003F00073002BF0D140497B68DA697B6896
:101274001B6A1A437B685B6A9B011A437B689B6AFF
:101284005B08013B1B041A437B68DB6A1B061343A0
:101294004B60374B01221A60FFF722FB386108E0EC
:1012A400FFF71EFB02463B69D31A022B01D9032325
:1012B40056E02E4B1B6803F00073002BF0D04EE079
:1012C4002B4B00221A60FFF70BFB386108E0FFF795
:1012D40007FB02463B69D31A022B01D903233FE0E3
:1012E400224B1B6803F00073002BF0D137E07B68BE
:1012F4009B69012B01D1012332E01C4B5B68FB602D
:101304007B689B69012B28D0FB6803F480027B680F
:10131400DB699A4221D1FB6803F03F027B681B6AB8
:101324009A421AD1FA6847F6C07313407A68526A2F
:101334009201934211D1FB6803F440327B689B6AAB
:101344005B08013B1B049A4207D1FB6803F07062FF
:101354007B68DB6A1B069A4201D0012300E000236C
:1013640018461837BD4680BD007000400038024062
:101374006000474280B584B000AF786039607B6814
:10138400002B01D10123CCE0684B1B6803F007025A
:101394003B689A420CD2654B3A68D2B21A70634BDE
:1013A4001B6803F007023B689A4201D00123B8E0AE
:1013B4007B681B6803F00203002B20D07B681B684A
:1013C40003F00403002B05D0594A594B9B6843F49E
:1013D400E05393607B681B6803F00803002B05D07F
:1013E400534A534B9B6843F4604393605049504BBA
:1013F4009B6823F0F0027B689B6813438B607B68D7
:101404001B6803F00103002B44D07B685B68012B4D
:1014140007D1474B1B6803F40033002B19D1012378
:101424007FE07B685B68022B03D07B685B68032BDF
:1014340007D13F4B1B6803F00073002B09D1012334
:101444006FE03B4B1B6803F00203002B01D1012327
:1014540067E03749364B9B6823F003027B685B687F
:1014640013438B60FFF73CFAF8600AE0FFF738FAA1
:101474000246FB68D31A41F28832934201D903230E
:101484004FE02B4B9B6803F00C027B685B689B006E
:101494009A42EBD1254B1B6803F007023B689A4242
:1014A4000CD9224B3A68D2B21A70204B1B6803F055
:1014B40007023B689A4201D0012332E07B681B6833
:1014C40003F00403002B08D01949194B9B6823F43B
:1014D400E0527B68DB6813438B607B681B6803F016
:1014E4000803002B09D01249114B9B6823F4604276
:1014F4007B681B69DB0013438B6000F021F8014615
:101504000B4B9B681B0903F00F030A4AD35C21FAB7
:1015140003F3094A1360094B1B681846FFF79CF94B
:10152400002318461037BD4680BD00BF003C024072
:101534000038024040200008000000200400002081
:101544002DE9F04F8FB000AF0023FB6200237B63D3
:101554000023BB6200233B63624B9B6803F00C03D4
:10156400042B07D0082B08D0002B40F0B2805E4B30
:101574003B63B1E05D4B3B63AEE05A4B5B6803F009
:101584003F03FB62574B5B6803F48003002B4ED090
:10159400544B5B689B094FF0000440F2FF114FF07D
:1015A400000201EA030102EA04020B461446600148
:1015B4007862786A40EAD36078625B013B62D7E97B
:1015C40008345B1A64EB02044FEA841949EA93690C
:1015D4004FEA8318B8EB030869EB04094FEAC9031F
:1015E400FB61FB6943EA5873FB614FEAC803BB61C3
:1015F400D7E9068918EB010849EB02094FEA4923A8
:101604007B617B6943EAD8537B614FEA48233B61A2
:10161400D7E9048940464946FB6A4FF000041A465C
:101624002346FEF7D5FD03460C467B6343E02D4B72
:101634005B689B094FF0000440F2FF114FF0000279
:1016440001EA030102EA04020B4614466001F86051
:10165400F86840EAD360F8605B01BB60D7E9023404
:101664005B1A64EB0204A60146EA93669D01ED1A37
:1016740066EB0406F3007B607B6843EA55737B608A
:10168400EB003B6097E860006D1846EB02064FEAFA
:10169400862B4BEA955B4FEA852A55465E462846DB
:1016A4003146FB6A4FF000041A462346FEF790FDCC
:1016B40003460C467B630B4B5B681B0C03F0030374
:1016C40001335B00BB627A6BBB6AB2FBF3F33B632F
:1016D40002E0054B3B6300BF3B6B18463C37BD46FD
:1016E400BDE8F08F003802400024F40000127A00B4
:1016F40080B582B000AF78607B68002B01D10123F4
:1017040041E07B6893F83D30DBB2002B06D17B6867
:10171400002283F83C207868FFF70AF87B680222ED
:1017240083F83D207B681A687B68043319461046A9
:1017340000F086FA7B68012283F846207B68012248
:1017440083F83E207B68012283F83F207B680122D6
:1017540083F840207B68012283F841207B680122C2
:1017640083F842207B68012283F843207B680122AE
:1017740083F844207B68012283F845207B6801229A
:1017840083F83D20002318460837BD4680BD00007D
:1017940080B485B000AF78607B6893F83D30DBB2ED
:1017A400012B01D0012344E07B68022283F83D2011
:1017B4007B681B687A681268D26842F00102DA60BA
:1017C4007B681B681E4A934218D07B681B68B3F180
:1017D400804F13D07B681B681A4A93420ED07B68F3
:1017E4001B68194A934209D07B681B68174A9342C5
:1017F40004D07B681B68164A934211D17B681B682E
:101804009B6803F00703FB60FB68062B10D07B6822
:101814001B687A681268126842F001021A6007E0D5
:101824007B681B687A681268126842F001021A60C9
:10183400002318461437BD465DF8047B704700BF8B
:10184400000001400004004000080040000C00407B
:101854000040014080B582B000AF78607B681B68AF
:101864001B6903F00203022B22D17B681B68DB682F
:1018740003F00203022B1BD17B681B686FF002028A
:101884001A617B6801221A777B681B689B6903F0E5
:101894000303002B03D0786800F0B4F905E07868FE
:1018A40000F0A6F9786800F0B7F97B6800221A778F
:1018B4007B681B681B6903F00403042B22D17B683B
:1018C4001B68DB6803F00403042B1BD17B681B68D3
:1018D4006FF004021A617B6802221A777B681B6826
:1018E4009B6903F44073002B03D0786800F08AF9F5
:1018F40005E0786800F07CF9786800F08DF97B6881
:1019040000221A777B681B681B6903F00803082B05
:1019140022D17B681B68DB6803F00803082B1BD10A
:101924007B681B686FF008021A617B6804221A77CF
:101934007B681B68DB6903F00303002B03D0786822
:1019440000F060F905E0786800F052F9786800F07A
:1019540063F97B6800221A777B681B681B6903F0B4
:101964001003102B22D17B681B68DB6803F0100383
:10197400102B1BD17B681B686FF010021A617B6807
:1019840008221A777B681B68DB6903F44073002B19
:1019940003D0786800F036F905E0786800F028F99B
:1019A400786800F039F97B6800221A777B681B6835
:1019B4001B6903F00103012B0ED17B681B68DB68F4
:1019C40003F00103012B07D17B681B686FF0010250
:1019D4001A61786800F002F97B681B681B6903F0E0
:1019E4008003802B0ED17B681B68DB6803F08003C7
:1019F400802B07D17B681B686FF080021A617868BE
:101A040000F0B0FA7B681B681B6903F04003402BAD
:101A14000ED17B681B68DB6803F04003402B07D1C1
:101A24007B681B686FF040021A61786800F0FEF86A
:101A34007B681B681B6903F02003202B0ED17B6895
:101A44001B68DB6803F02003202B07D17B681B682D
:101A54006FF020021A61786800F07AFA00BF083744
:101A6400BD4680BD80B584B000AF78603960002386
:101A7400FB737B6893F83C30012B01D10223A9E06E
:101A84007B68012283F83C207B68022283F83D2096
:101A94007B681B689B68BB60BB6823F07703BB60F3
:101AA400BB6823F47F43BB607B681B68BA689A6099
:101AB4003B681B68402B67D0402B0BD8102B73D08E
:101AC400102B02D8002B6FD077E0202B6CD0302B5A
:101AD4006AD072E0702B0DD0702B04D8502B33D009
:101AE400602B41D069E0B3F5805F69D0B3F5005F46
:101AF40017D062E07B6818683B6899683B685A684D
:101B04003B68DB6800F096F97B681B689B68BB60E8
:101B1400BB6843F07703BB607B681B68BA689A6054
:101B24004FE07B6818683B6899683B685A683B6873
:101B3400DB6800F07FF97B681B687A68126892683A
:101B440042F480429A603CE07B6818683B685968BC
:101B54003B68DB681A4600F0F3F87B681B68502189
:101B6400184600F04CF92CE07B6818683B6859680B
:101B74003B68DB681A4600F012F97B681B68602139
:101B8400184600F03CF91CE07B6818683B6859680B
:101B94003B68DB681A4600F0D3F87B681B68402179
:101BA400184600F02CF90CE07B681A683B681B6847
:101BB4001946104600F023F903E00123FB7300E00B
:101BC40000BF7B68012283F83D207B68002283F8F4
:101BD4003C20FB7B18461037BD4680BD80B483B0E3
:101BE40000AF786000BF0C37BD465DF8047B7047DA
:101BF40080B483B000AF786000BF0C37BD465DF899
:101C0400047B704780B483B000AF786000BF0C37AA
:101C1400BD465DF8047B704780B483B000AF786044
:101C240000BF0C37BD465DF8047B704780B483B0B9
:101C340000AF786000BF0C37BD465DF8047B704789
:101C440080B485B000AF786039607B681B68FB6046
:101C54007B68344A93420FD07B68B3F1804F0BD03A
:101C64007B68314A934207D07B68304A934203D061
:101C74007B682F4A934208D1FB6823F07003FB6012
:101C84003B685B68FA681343FB607B68254A9342B0
:101C94001BD07B68B3F1804F17D07B68224A9342F4
:101CA40013D07B68214A93420FD07B68204A934229
:101CB4000BD07B681F4A934207D07B681E4A93422D
:101CC40003D07B681D4A934208D1FB6823F4407318
:101CD400FB603B68DB68FA681343FB60FB6823F036
:101CE40080023B685B691343FB607B68FA681A6097
:101CF4003B689A687B68DA623B681A687B689A6218
:101D04007B68084A934203D13B681A697B681A636B
:101D14007B6801225A6100BF1437BD465DF8047B1D
:101D2400704700BF0000014000040040000800406C
:101D3400000C0040004001400044014000480140C4
:101D440080B487B000AFF860B9607A60FB681B6A42
:101D54007B61FB681B6A23F00102FB681A62FB6863
:101D64009B693B613B6923F0F0033B617B681B018A
:101D74003A6913433B617B6923F00A037B617A6907
:101D8400BB6813437B61FB683A699A61FB687A69B3
:101D94001A6200BF1C37BD465DF8047B704780B4EF
:101DA40087B000AFF860B9607A60FB681B6A23F003
:101DB4001002FB681A62FB689B697B61FB681B6A03
:101DC4003B617B6923F470437B617B681B037A6905
:101DD40013437B613B6923F0A0033B61BB681B0198
:101DE4003A6913433B61FB687A699A61FB683A6913
:101DF4001A6200BF1C37BD465DF8047B704780B48F
:101E040085B000AF786039607B689B68FB60FB68D5
:101E140023F07003FB603A68FB68134343F0070345
:101E2400FB607B68FA689A6000BF1437BD465DF8B2
:101E3400047B704780B487B000AFF860B9607A6003
:101E44003B60FB689B687B617B6923F47F437B6118
:101E54003B681A027B681A43BB6813437A691343CD
:101E64007B61FB687A699A6000BF1C37BD465DF8E8
:101E7400047B704780B485B000AF786039607B68BC
:101E840093F83C30012B01D1022350E07B680122FE
:101E940083F83C207B68022283F83D207B681B6822
:101EA4005B68FB607B681B689B68BB60FB6823F016
:101EB4007003FB603B681B68FA681343FB607B6834
:101EC4001B68FA685A607B681B681C4A934218D0E6
:101ED4007B681B68B3F1804F13D07B681B68184A7A
:101EE40093420ED07B681B68164A934209D07B68E4
:101EF4001B68154A934204D07B681B68134A9342BB
:101F04000CD1BB6823F08003BB603B685B68BA6894
:101F14001343BB607B681B68BA689A607B680122C4
:101F240083F83D207B68002283F83C200023184678
:101F34001437BD465DF8047B704700BF00000140C4
:101F44000004004000080040000C00400040014034
:101F540080B483B000AF786000BF0C37BD465DF835
:101F6400047B704780B483B000AF786000BF0C3747
:101F7400BD465DF8047B7047DFF834D00D480E4948
:101F84000E4A002302E0D458C4500433C4188C42CF
:101F9400F9D30B4A0B4C002301E013600432A24234
:101FA400FBD3FEF725FC00F011F8FEF799FA704711
:101FB40000800120000000200C00002060200008A8
:101FC4000C00002074000020FEE7000070B50D4EE8
:101FD4000D4CA41BA4100025A54209D10B4E0C4C9A
:101FE40000F020F8A41BA4100025A54205D170BD63
:101FF40056F8253098470135EEE756F825309847CE
:102004000135F2E75820000858200008582000083D
:102014005C20000802440346934200D1704703F851
:10202400011BF9E7F8B500BFF8BC08BC9E46704731
:0C203400F8B500BFF8BC08BC9E46704721
:102040000000000000000000010203040607080968
:08205000B4E1FF7F0100000074
:04205800B9010008C2
:04205C0095010008E2
:0C2060000024F40010000000010000004B
:0400000508001F7D53
:00000001FF
