:020000040800F2
:1000000000800120711E00087D0800088308000898
:10001000890800088F080008950800080000000003
:100020000000000000000000000000009B08000825
:10003000A908000800000000B7080008C50800086B
:10004000C11E0008C11E0008C11E0008C11E000814
:10005000C11E0008C11E0008C11E0008C11E000804
:10006000C11E0008C11E0008C11E0008C11E0008F4
:10007000C11E0008C11E0008C11E0008C11E0008E4
:10008000C11E0008C11E0008C11E000800000000BB
:10009000000000000000000000000000C11E000879
:1000A000C11E0008C11E0008C11E0008C11E0008B4
:1000B000C11E0008C11E0008C11E0008C11E0008A4
:1000C000C11E0008C11E0008C11E0008C11E000894
:1000D000C11E0008C11E0008C11E0008000000006B
:1000E000C11E0008C11E0008C11E0008000000005B
:1000F000000000000000000000000000C11E000819
:1001000000000000C11E0008C11E0008C11E00083A
:1001100000000000000000000000000000000000DF
:10012000C11E0008C11E0008C11E0008C11E000833
:10013000C11E0008000000000000000000000000D8
:10014000000000000000000000000000C11E0008C8
:10015000C11E0008C11E0008C11E0008C11E000803
:10016000C11E0008C11E00080000000000000000C1
:10017000000000000000000000000000000000007F
:1001800000000000C11E0008000000000000000088
:04019000C11E000884
:1001940010B5054C237833B9044B13B10448AFF3BD
:1001A40000800123237010BD0C000020000000001B
:1001B4001C1F000808B5034B1BB103490348AFF3E8
:1001C400008008BD00000000100000201C1F000873
:1001D40053B94AB9002908BF00281CBF4FF0FF31AA
:1001E4004FF0FF3000F07AB9ADF1080C6DE904CEA0
:1001F40000F006F8DDF804E0DDE9022304B07047FE
:100204002DE9F0478C460D460446089E002B51D13B
:100214008A4217466DD9B2FA82FEBEF1000F0BD0A6
:10022400CEF1200C01FA0EF520FA0CFC02FA0EF7BE
:100234004CEA050C00FA0EF44FEA174A250CBCFBF5
:10024400FAF81FFA87F90AFB18CC45EA0C4508FBB3
:1002540009F3AB420AD9ED1908F1FF3280F023818A
:10026400AB4240F22081A8F102083D44ED1AA4B249
:10027400B5FBFAF00AFB105544EA054400FB09F902
:10028400A14509D9E41900F1FF3380F00A81A145A1
:1002940040F2078102383C44A4EB090440EA0840D8
:1002A4000021002E61D024FA0EF400233460736020
:1002B400BDE8F0878B4207D9002E54D0002186E890
:1002C40021000846BDE8F087B3FA83F1002940F025
:1002D4008E80AB4202D3824200F2FA80841A65EB2C
:1002E40003050120AC46002E3FD086E81010BDE87F
:1002F400F08712B90127B7FBF2F7B7FA87FEBEF110
:10030400000F34D1EB1B3A0C1FFA87FC0121B3FB1D
:10031400F2F8250C02FB183345EA03450CFB08F3FD
:10032400AB4207D9ED1908F1FF3002D2AB4200F21B
:10033400D1808046ED1AA3B2B5FBF2F002FB105552
:1003440043EA05440CFB00FCA44507D9E41900F179
:10035400FF3302D2A44500F2B8801846A4EB0C0483
:1003640040EA08409DE731463046BDE8F087CEF1CB
:10037400200405FA0EF307FA0EF720FA04F83A0CF3
:1003840025FA04F448EA0308B4FBF2F14FEA1845ED
:1003940002FB11441FFA87FC45EA044501FB0CF3F8
:1003A400AB4200FA0EF409D9ED1901F1FF3080F0E7
:1003B4008A80AB4240F2878002393D44EB1A1FFA2F
:1003C40088F5B3FBF2F002FB103345EA034500FB6A
:1003D4000CF3AB4207D9ED1900F1FF386FD2AB42F1
:1003E4006DD902383D44EB1A40EA01418FE7C1F16F
:1003F400200722FA07F88B4005FA01F448EA0303C0
:1004040020FA07FE4FEA134CFD404EEA040EB5FBFA
:10041400FCF94FEA1E440CFB19551FFA83F844EA11
:10042400054509FB08F4AC4202FA01F200FA01FAAC
:1004340008D9ED1809F1FF3043D2AC4241D9A9F1F2
:1004440002091D442D1B1FFA8EFEB5FBFCF00CFBAC
:1004540010554EEA054400FB08F8A04507D9E418F6
:1004640000F1FF3529D2A04527D902381C4440EABF
:100474000940A4EB0804A0FB02894C45C6464D463E
:1004840015D312D056B1BAEB0E0364EB050404FA8B
:1004940007F7CB401F43CC40376074600021BDE8B0
:1004A400F0871846F8E69046E0E6C245EAD2B8EB93
:1004B400020E69EB03050138E4E72846D7E7404616
:1004C40091E78146BEE7014678E702383C4445E7B8
:1004D400084608E7A8F102083D442BE7704700BF2F
:1004E40098B500AF2249234800F06CFB0346002B6B
:1004F4003CD1214B1C681F4800F0EFFB03469AB225
:100504001E4B23F814201C4B1B6801331A4A13603A
:10051400194B1B68022B02D1174B00221A60184B8F
:100524001B8807EE903AF8EEE77A9FED167A67EEAD
:10053400876A124B5B8807EE903AB8EEE77AC6EE0C
:10054400877A114BC3ED007A0C4B1B8807EE903A67
:10055400B8EEE77A0C4BD3ED007A27EE277ADFED7D
:100564000B6AC7EE267A0A4BC3ED007A00BF98BD2A
:10057400A086010038000020300000203400002054
:100584002A7AFF1F333353402C00002000F07F45AC
:100594002800002080B500AF00F0AAF900F00CF8A4
:1005A40000F0D2F800F072F8024800F057FAFFF7B2
:1005B40097FFFCE73800002080B594B000AF07F146
:1005C400200330220021184601F09EFC07F10C03A1
:1005D40000221A605A609A60DA601A610023BB60D4
:1005E400284A284B1B6C43F080531364254B1B6C27
:1005F40003F08053BB60BB6800237B60224A224B1C
:100604001B6823F4404343F4004313601E4B1B68F0
:1006140003F440437B607B6801233B624FF48033E7
:100624007B620223BB634FF48003FB6304233B64BC
:1006340054237B640223BB640723FB6407F1200378
:10064400184600F0DDFF0346002B01D000F0A4F8AB
:100654000F23FB6002233B6100237B614FF4805333
:10066400BB610023FB6107F10C030221184601F072
:100674003FFA0346002B01D000F08EF800BF50373C
:10068400BD4680BD003802400070004080B584B093
:1006940000AF3B4600221A605A609A60DA60274B2A
:1006A400274A1A60254B4FF480325A60234B0022AC
:1006B4009A60224B01221A61204B01221A761F4BA9
:1006C400002283F820201D4B0022DA621B4B1D4AB6
:1006D4009A621A4B0022DA60184B0222DA61174B35
:1006E400002283F83020154B01225A61134800F090
:1006F40071F90346002B01D000F04EF800233B6053
:1007040001237B600323BB603B4619460B4800F082
:10071400F1FA0346002B01D000F03EF802237B607F
:100724003B461946054800F0E5FA0346002B01D084
:1007340000F032F800BF1037BD4680BD38000020FD
:10074400002001400100000F80B483B000AF0023FB
:100754007B60104A0F4B1B6B43F0800313630D4BFC
:100764001B6B03F080037B607B6800233B60094ABA
:10077400084B1B6B43F001031363064B1B6B03F025
:1007840001033B603B6800BF0C37BD465DF8047B4A
:10079400704700BF0038024080B400AF72B6FEE775
:1007A40080B582B000AF00237B60104A0F4B5B6CB6
:1007B40043F4804353640D4B5B6C03F480437B60D0
:1007C4007B6800233B60094A084B1B6C43F0805351
:1007D4001364064B1B6C03F080533B603B6807209B
:1007E40000F058FD00BF0837BD4680BD0038024008
:1007F40080B58AB000AF786007F1140300221A6054
:100804005A609A60DA601A617B681B68174A9342DF
:1008140027D100233B61164A154B5B6C43F480736C
:100824005364134B5B6C03F480733B613B6900239B
:10083400FB600F4A0E4B1B6B43F0010313630C4B1D
:100844001B6B03F00103FB60FB6801237B61032343
:10085400BB610023FB6107F114031946054800F04E
:100864004DFD00BF2837BD4680BD00BF00200140BC
:10087400003802400000024080B400AFFEE780B4BC
:1008840000AFFEE780B400AFFEE780B400AFFEE740
:1008940080B400AFFEE780B400AF00BFBD465DF892
:1008A400047B704780B400AF00BFBD465DF8047B95
:1008B400704780B400AF00BFBD465DF8047B70474D
:1008C40080B500AF00F066F800BF80BD80B400AF13
:1008D400064A064BD3F8883043F47003C2F88830D4
:1008E40000BFBD465DF8047B704700BF00ED00E02B
:1008F40080B500AF0E4A0E4B1B6843F400731360BF
:100904000B4A0B4B1B6843F480631360084A084B83
:100914001B6843F480731360032000F0BBFC0020C9
:1009240000F008F8FFF73CFF0023184680BD00BF25
:10093400003C024080B582B000AF7860124B1A6868
:10094400124B1B7819464FF47A73B3FBF1F3B2FBE5
:10095400F3F3184600F0C5FC0346002B01D0012335
:100964000EE07B680F2B0AD8002279684FF0FF3025
:1009740000F09BFC064A7B681360002300E001231F
:1009840018460837BD4680BD00000020080000203E
:100994000400002080B400AF064B1B781A46064BB7
:1009A4001B681344044A136000BFBD465DF8047B12
:1009B400704700BF080000208000002080B400AF12
:1009C400034B1B681846BD465DF8047B704700BFA7
:1009D4008000002080B584B000AF78600023FB73F2
:1009E4007B68002B01D1012333E07B681B6C002B57
:1009F40009D17868FFF7FCFE7B6800225A647B68A3
:100A0400002283F83C207B681B6C03F01003002B4E
:100A140018D17B681B6C23F4885323F0020343F042
:100A240002027B681A64786800F088FA7B68002206
:100A34005A647B681B6C23F0030343F001027B6858
:100A44001A6401E00123FB737B68002283F83C20D5
:100A5400FB7B18461037BD4680BD000080B485B0CE
:100A640000AF78600023BB607B6893F83C30012BB7
:100A740001D1022397E07B68012283F83C207B6844
:100A84001B689B6803F00103012B18D07B681B686B
:100A94007A681268926842F001029A60454B1B68BA
:100AA400454AA2FB03239A0C13465B001344BB6024
:100AB40002E0BB68013BBB60BB68002BF9D17B68DB
:100AC4001B689B6803F00103012B5FD17B681B6CDF
:100AD40023F4E06323F0010343F480727B681A6417
:100AE4007B681B685B6803F48063002B07D07B681A
:100AF4001B6C23F4405343F480527B681A647B6874
:100B04001B6C03F48053B3F5805F06D17B685B6C88
:100B140023F006027B685A6402E07B6800225A6470
:100B24007B68002283F83C20244BFB607B681B68B5
:100B34006FF022021A60FB685B6803F01F03002B4E
:100B44000FD17B681B689B6803F04053002B29D1AD
:100B54007B681B687A681268926842F080429A60E7
:100B640020E07B681B68164A93421BD17B681B6894
:100B74009B6803F04053002B14D17B681B687A6890
:100B84001268926842F080429A600BE07B681B6CAA
:100B940043F010027B681A647B685B6C43F00102CB
:100BA4007B685A64002318461437BD465DF8047BFD
:100BB400704700BF0000002083DE1B430023014078
:100BC4000020014080B584B000AF78603960002314
:100BD400FB607B681B689B6803F48063B3F5806FDC
:100BE40013D17B681B689B6803F48073B3F5807F23
:100BF4000BD17B681B6C43F020027B681A647B6812
:100C0400002283F83C20012363E0FFF7D7FEF8605D
:100C140021E03B68B3F1FF3F1DD03B68002B07D0B8
:100C2400FFF7CCFE0246FB68D21A3B689A4212D9FF
:100C34007B681B681B6803F00203022B0BD07B68E4
:100C44001B6C43F004027B681A647B68002283F8FF
:100C54003C2003233DE07B681B681B6803F0020310
:100C6400022BD6D17B681B686FF012021A607B6876
:100C74001B6C43F400727B681A647B681B689B6876
:100C840003F04053002B23D17B681B7E002B1FD124
:100C94007B681B68DB6A03F47003002B06D07B6857
:100CA4001B689B6803F48063002B11D17B681B6C69
:100CB40023F480727B681A647B681B6C03F4805392
:100CC400002B05D17B681B6C43F001027B681A641E
:100CD400002318461037BD4680BD80B483B000AFF2
:100CE40078607B681B68DB6C18460C37BD465DF882
:100CF400047B704790B484B000AF786039600023FF
:100D0400BB607B6893F83C30012B01D1022307E1DF
:100D14007B68012283F83C203B681B68092B26D999
:100D24007B681A687B681B68D9683B681B689BB240
:100D3400184603465B0003441E3B072000FA03F3F6
:100D4400DB430B40D3607B681A687B681B68D968F7
:100D54003B6898683B681B689BB21C4623465B0053
:100D640023441E3B00FA03F30B43D36023E07B6868
:100D74001A687B681B6819693B681B689BB2184634
:100D840003465B000344072000FA03F3DB430B40F4
:100D940013617B681A687B681B6819693B689868EB
:100DA4003B681B689BB21C4623465B00234400FA45
:100DB40003F30B4313613B685B68062B24D87B6801
:100DC40019687B681B68586B3B685A6813469B001C
:100DD4001344053B1F2202FA03F3DB4303404B6336
:100DE4007B6819687B681B68586B3B681B689BB2FF
:100DF4001C463B685A6813469B001344053B04FA9F
:100E040003F303434B634CE03B685B680C2B24D82F
:100E14007B6819687B681B68186B3B685A681346C3
:100E24009B001344233B1F2202FA03F3DB430340DA
:100E34000B637B6819687B681B68186B3B681B68CD
:100E44009BB21C463B685A6813469B001344233BE1
:100E540004FA03F303430B6323E07B6819687B689C
:100E64001B68D86A3B685A6813469B001344413B8D
:100E74001F2202FA03F3DB430340CB627B68196849
:100E84007B681B68D86A3B681B689BB21C463B683E
:100E94005A6813469B001344413B04FA03F303438B
:100EA400CB62224BFB607B681B68214A934209D1C9
:100EB4003B681B68122B05D1FB685B6843F4800216
:100EC400FB685A607B681B68194A934223D13B68CC
:100ED4001B68102B03D03B681B68112B1BD1FB68CC
:100EE4005B6843F40002FB685A603B681B68102B84
:100EF40011D1104B1B68104AA2FB03239A0C134612
:100F04009B0013445B00BB6002E0BB68013BBB6019
:100F1400BB68002BF9D17B68002283F83C200023B6
:100F240018461037BD4690BC704700BF00230140EF
:100F3400002001400000002083DE1B4380B485B004
:100F440000AF7860794BFB60FB685B6823F4403248
:100F5400FB685A60FB685A687B685B681A43FB68E5
:100F64005A607B681B687A681268526822F480723F
:100F74005A607B681B687A68126851687A681269DB
:100F840012020A435A607B681B687A6812685268C6
:100F940022F040725A607B681B687A681268516854
:100FA4007A6892680A435A607B681B687A68126898
:100FB400926822F400629A607B681B687A681268FF
:100FC40091687A68D2680A439A607B689B6A584A37
:100FD400934222D07B681B687A681268926822F078
:100FE40070629A607B681B687A68126891687A6894
:100FF400926A0A439A607B681B687A6812689268EE
:1010040022F040529A607B681B687A681268916883
:101014007A68D26A0A439A600FE07B681B687A6830
:101024001268926822F070629A607B681B687A6822
:101034001268926822F040529A607B681B687A6852
:101044001268926822F002029A607B681B687A68D0
:10105400126891687A68127E52000A439A607B682B
:1010640093F82030002B1BD07B681B687A681268C9
:10107400526842F400625A607B681B687A6812689E
:10108400526822F460425A607B681B687A6812686E
:1010940051687A68526A013A52030A435A6007E077
:1010A4007B681B687A681268526822F400625A608E
:1010B4007B681B687A681268D26A22F47002DA626A
:1010C4007B681B687A681268D16A7A68D269013AC7
:1010D40012050A43DA627B681B687A6812689268B0
:1010E40022F400729A607B681B687A6812689168BF
:1010F4007A6892F8302052020A439A607B681B682F
:101104007A681268926822F480629A607B681B682D
:101114007A68126891687A68526992020A439A60FE
:1011240000BF1437BD465DF8047B704700230140BF
:101134000100000F80B485B000AF78607B6803F0D5
:101144000703FB600C4BDB68BB60BA684FF6FF0318
:101154001340BB60FB681A02BB68134343F0BF63D0
:1011640043F40033BB60044ABB68D36000BF143748
:10117400BD465DF8047B704700ED00E080B400AF2D
:10118400044BDB681B0A03F007031846BD465DF8F1
:10119400047B704700ED00E080B483B000AF0346E9
:1011A4003960FB7197F90730002B0ADB0D4997F979
:1011B40007303A68D2B21201D2B20B4483F800234A
:1011C4000AE00949FB7903F00F03043B3A68D2B201
:1011D4001201D2B20B441A7600BF0C37BD465DF83B
:1011E400047B704700E100E000ED00E080B489B0CA
:1011F40000AFF860B9607A60FB6803F00703FB6135
:10120400FB69C3F10703042B28BF0423BB61FB69FB
:101214000433062B02D9FB69033B00E000237B6106
:101224000122BB6902FA03F35A1EBB681A407B69A8
:101234009A4001217B6901FA03F3591E7B680B4034
:10124400134318462437BD465DF8047B70470000FD
:1012540080B582B000AF78607B68013BB3F1807FDA
:1012640001D301230FE00A4A7B68013B53600F213D
:101274004FF0FF30FFF790FF054B00229A60044BBC
:1012840007221A60002318460837BD4680BD00BFF8
:1012940010E000E080B582B000AF78607868FFF7B6
:1012A40049FF00BF0837BD4680BD80B586B000AF9A
:1012B4000346B9607A60FB7300237B61FFF75EFF2E
:1012C40078617A68B9687869FFF790FF024697F900
:1012D4000F3011461846FFF75FFF00BF1837BD46B1
:1012E40080BD80B582B000AF78607868FFF7B0FF4A
:1012F400034618460837BD4680BD000080B489B057
:1013040000AF7860396000237B6100233B610023D8
:10131400BB610023FB6159E10122FB6902FA03F37B
:101324007B613B681A687B6913403B613A697B695E
:101334009A4240F048813B685B6803F00303012B49
:1013440005D03B685B6803F00303022B30D17B6854
:101354009B68BB61FB695B00032202FA03F3DB4376
:10136400BA691340BB613B68DA68FB695B0002FA47
:1013740003F3BA691343BB617B68BA699A607B68FB
:101384005B68BB610122FB6902FA03F3DB43BA69C0
:101394001340BB613B685B681B0903F00102FB69F6
:1013A40002FA03F3BA691343BB617B68BA695A60F2
:1013B4003B685B6803F00303032B17D07B68DB688F
:1013C400BB61FB695B00032202FA03F3DB43BA69E6
:1013D4001340BB613B689A68FB695B0002FA03F344
:1013E400BA691343BB617B68BA69DA603B685B68BE
:1013F40003F00303022B23D1FB69DA087B6808326C
:1014040053F82230BB61FB6903F007039B000F22F2
:1014140002FA03F3DB43BA691340BB613B681A6900
:10142400FB6903F007039B0002FA03F3BA69134351
:10143400BB61FB69DA087B680832B96943F822109A
:101444007B681B68BB61FB695B00032202FA03F340
:10145400DB43BA691340BB613B685B6803F003027A
:10146400FB695B0002FA03F3BA691343BB617B684F
:10147400BA691A603B685B6803F44033002B00F0E0
:10148400A2800023FB60564A554B5B6C43F48043B7
:101494005364534B5B6C03F48043FB60FB68514A19
:1014A400FB699B08023352F82330BB61FB6903F0EC
:1014B40003039B000F2202FA03F3DB43BA691340D0
:1014C400BB617B68484A934219D07B68474A934280
:1014D40013D07B68464A93420DD07B68454A9342B9
:1014E40007D07B68444A934201D1042308E00723D0
:1014F40006E0032304E0022302E0012300E00023CA
:10150400FA6902F0030292009340BA691343BB6183
:101514003449FB699B080233BA6941F82320374BED
:101524009B68BB613B69DB43BA691340BB613B68A1
:101534005B6803F48013002B03D0BA693B6913433F
:10154400BB612E4ABB6993602C4BDB68BB613B6972
:10155400DB43BA691340BB613B685B6803F4001367
:10156400002B03D0BA693B691343BB61234ABB69AF
:10157400D360224B5B68BB613B69DB43BA691340B0
:10158400BB613B685B6803F40033002B03D0BA698A
:101594003B691343BB61194ABB695360174B1B6812
:1015A400BB613B69DB43BA691340BB613B685B6861
:1015B40003F48033002B03D0BA693B691343BB6146
:1015C4000E4ABB691360FB690133FB61FB690F2B96
:1015D4007FF6A2AE00BF2437BD465DF8047B70479A
:1015E400003802400038014000000240000402407C
:1015F40000080240000C024000100240003C014080
:1016040080B586B000AF78607B68002B01D10123E0
:1016140064E27B681B6803F00103002B75D0A34BC5
:101624009B6803F00C03042B0CD0A04B9B6803F0C5
:101634000C03082B12D19D4B5B6803F48003B3F5B4
:10164400800F0BD1994B1B6803F40033002B5BD044
:101654007B685B68002B57D101233FE27B685B68A2
:10166400B3F5803F06D1914A904B1B6843F4803315
:1016740013601DE07B685B68B3F5A02F0CD18B4A27
:101684008A4B1B6843F480231360884A874B1B688A
:1016940043F4803313600BE0844A844B1B6823F4C7
:1016A40080331360814A814B1B6823F480231360C9
:1016B4007B685B68002B13D0FFF780F9386108E082
:1016C400FFF77CF902463B69D31A642B01D9032343
:1016D40004E2764B1B6803F40033002BF0D014E0D3
:1016E400FFF76CF9386108E0FFF768F902463B69D7
:1016F400D31A642B01D90323F0E16C4B1B6803F468
:101704000033002BF0D100E000BF7B681B6803F0BE
:101714000203002B63D0654B9B6803F00C03002B82
:101724000BD0624B9B6803F00C03082B1CD15F4B5E
:101734005B6803F48003002B16D15C4B1B6803F039
:101744000203002B05D07B68DB68012B01D0012349
:10175400C4E15649554B1B6823F0F8027B681B69AA
:10176400DB0013430B603AE07B68DB68002B20D07E
:101774004F4B01221A60FFF721F9386108E0FFF7A7
:101784001DF902463B69D31A022B01D90323A5E1B3
:10179400464B1B6803F00203002BF0D04349434B34
:1017A4001B6823F0F8027B681B69DB0013430B60A2
:1017B40015E03F4B00221A60FFF700F9386108E09A
:1017C400FFF7FCF802463B69D31A022B01D9032325
:1017D40084E1364B1B6803F00203002BF0D17B68D5
:1017E4001B6803F00803002B30D07B685B69002B77
:1017F40016D0304B01221A60FFF7E0F8386108E098
:10180400FFF7DCF802463B69D31A022B01D9032304
:1018140064E1264B5B6F03F00203002BF0D015E06C
:10182400244B00221A60FFF7C9F8386108E0FFF77B
:10183400C5F802463B69D31A022B01D903234DE1B3
:101844001A4B5B6F03F00203002BF0D17B681B681B
:1018540003F00403002B00F0A0800023FB75134B5E
:101864001B6C03F08053002B0FD10023BB600F4A85
:101874000E4B1B6C43F0805313640C4B1B6C03F036
:101884008053BB60BB680123FB750B4B1B6803F4DF
:101894008073002B21D1084A074B1B6843F48073E3
:1018A4001360FFF78BF8386111E000BF0038024085
:1018B40000004742800E474200700040FFF77EF868
:1018C40002463B69D31A022B01D9032306E1854B57
:1018D4001B6803F48073002BF0D07B689B68012B9A
:1018E40006D1814A804B1B6F43F0010313671CE050
:1018F4007B689B68052B0CD17B4A7B4B1B6F43F0A9
:1019040004031367784A784B1B6F43F00103136792
:101914000BE0754A744B1B6F23F001031367724A83
:10192400714B1B6F23F0040313677B689B68002BC8
:1019340015D0FFF743F838610AE0FFF73FF8024695
:101944003B69D31A41F28832934201D90323C5E09B
:10195400654B1B6F03F00203002BEED014E0FFF77E
:101964002DF838610AE0FFF729F802463B69D31ADB
:1019740041F28832934201D90323AFE05A4B1B6FE3
:1019840003F00203002BEED1FB7D012B05D1564A57
:10199400554B1B6C23F0805313647B689B69002BAD
:1019A40000F09B80504B9B6803F00C03082B5CD029
:1019B4007B689B69022B41D14C4B00221A60FEF7D5
:1019C400FDFF386108E0FEF7F9FF02463B69D31AD0
:1019D400022B01D9032381E0434B1B6803F00073FE
:1019E400002BF0D140497B68DA697B681B6A1A4393
:1019F4007B685B6A9B011A437B689B6A5B08013BBB
:101A04001B041A437B68DB6A1B0613434B60374B8A
:101A140001221A60FEF7D2FF386108E0FEF7CEFF1C
:101A240002463B69D31A022B01D9032356E02E4BFD
:101A34001B6803F00073002BF0D04EE02B4B002208
:101A44001A60FEF7BBFF386108E0FEF7B7FF0246F5
:101A54003B69D31A022B01D903233FE0224B1B68B5
:101A640003F00073002BF0D137E07B689B69012BF6
:101A740001D1012332E01C4B5B68FB607B689B69EE
:101A8400012B28D0FB6803F480027B68DB699A424F
:101A940021D1FB6803F03F027B681B6A9A421AD18A
:101AA400FA6847F6C07313407A68526A9201934207
:101AB40011D1FB6803F440327B689B6A5B08013BED
:101AC4001B049A4207D1FB6803F070627B68DB6AEF
:101AD4001B069A4201D0012300E000231846183760
:101AE400BD4680BD0070004000380240600047429F
:101AF40080B584B000AF786039607B68002B01D179
:101B04000123CCE0684B1B6803F007023B689A4250
:101B14000CD2654B3A68D2B21A70634B1B6803F05F
:101B240007023B689A4201D00123B8E07B681B6836
:101B340003F00203002B20D07B681B6803F004032E
:101B4400002B05D0594A594B9B6843F4E0539360EA
:101B54007B681B6803F00803002B05D0534A534BE2
:101B64009B6843F4604393605049504B9B6823F057
:101B7400F0027B689B6813438B607B681B6803F0EF
:101B84000103002B44D07B685B68012B07D1474BD2
:101B94001B6803F40033002B19D101237FE07B6819
:101BA4005B68022B03D07B685B68032B07D13F4B38
:101BB4001B6803F00073002B09D101236FE03B4B3A
:101BC4001B6803F00203002B01D1012367E03749AE
:101BD400364B9B6823F003027B685B6813438B607E
:101BE400FEF7ECFEF8600AE0FEF7E8FE0246FB684A
:101BF400D31A41F28832934201D903234FE02B4B8D
:101C04009B6803F00C027B685B689B009A42EBD1F3
:101C1400254B1B6803F007023B689A420CD9224B00
:101C24003A68D2B21A70204B1B6803F007023B6873
:101C34009A4201D0012332E07B681B6803F004035D
:101C4400002B08D01949194B9B6823F4E0527B6898
:101C5400DB6813438B607B681B6803F00803002B6D
:101C640009D01249114B9B6823F460427B681B69BD
:101C7400DB0013438B6000F021F801460B4B9B689B
:101C84001B0903F00F030A4AD35C21FA03F3094A40
:101C94001360094B1B681846FEF74CFE00231846D8
:101CA4001037BD4680BD00BF003C024000380240F2
:101CB400341F000800000020040000202DE9F04F2C
:101CC4008FB000AF0023FB6200237B630023BB6261
:101CD40000233B63624B9B6803F00C03042B07D087
:101CE400082B08D0002B40F0B2805E4B3B63B1E080
:101CF4005D4B3B63AEE05A4B5B6803F03F03FB6212
:101D0400574B5B6803F48003002B4ED0544B5B6845
:101D14009B094FF0000440F2FF114FF0000201EA6A
:101D2400030102EA04020B46144660017862786AF1
:101D340040EAD36078625B013B62D7E908345B1AFE
:101D440064EB02044FEA841949EA93694FEA831861
:101D5400B8EB030869EB04094FEAC903FB61FB69AB
:101D640043EA5873FB614FEAC803BB61D7E90689AC
:101D740018EB010849EB02094FEA49237B617B69AF
:101D840043EAD8537B614FEA48233B61D7E904898E
:101D940040464946FB6A4FF000041A462346FEF7C4
:101DA40017FA03460C467B6343E02D4B5B689B09A3
:101DB4004FF0000440F2FF114FF0000201EA03016A
:101DC40002EA04020B4614466001F860F86840EA2F
:101DD400D360F8605B01BB60D7E902345B1A64EB43
:101DE4000204A60146EA93669D01ED1A66EB040619
:101DF400F3007B607B6843EA55737B60EB003B60D8
:101E040097E860006D1846EB02064FEA862B4BEA12
:101E1400955B4FEA852A55465E4628463146FB6A5D
:101E24004FF000041A462346FEF7D2F903460C4647
:101E34007B630B4B5B681B0C03F0030301335B00F8
:101E4400BB627A6BBB6AB2FBF3F33B6302E0054B04
:101E54003B6300BF3B6B18463C37BD46BDE8F08F83
:101E6400003802400024F40000127A00DFF834D075
:101E74000D480E490E4A002302E0D458C4500433DE
:101E8400C4188C42F9D30B4A0B4C002301E01360B5
:101E94000432A242FBD3FEF719FD00F011F8FEF75D
:101EA40079FB704700800120000000200C00002016
:101EB400541F00080C00002084000020FEE70000EE
:101EC40070B50D4E0D4CA41BA4100025A54209D1DC
:101ED4000B4E0C4C00F020F8A41BA4100025A542C6
:101EE40005D170BD56F8253098470135EEE756F810
:101EF400253098470135F2E74C1F00084C1F0008B5
:101F04004C1F0008501F000802440346934200D1AE
:101F1400704703F8011BF9E7F8B500BFF8BC08BC2B
:101F24009E467047F8B500BFF8BC08BC9E46704793
:101F34000000000000000000010203040607080975
:081F4400C0E2FF7F0100000074
:041F4C00B9010008CF
:041F500095010008EF
:0C1F54000024F400100000000100000058
:0400000508001E7160
:00000001FF
